{
  "contractName": "Rpsls",
  "abi": [
    {
      "inputs": [],
      "payable": false,
      "stateMutability": "nonpayable",
      "type": "constructor"
    },
    {
      "constant": false,
      "inputs": [],
      "name": "registerUser",
      "outputs": [],
      "payable": false,
      "stateMutability": "nonpayable",
      "type": "function"
    },
    {
      "constant": false,
      "inputs": [
        {
          "name": "choiceHash",
          "type": "bytes32"
        }
      ],
      "name": "bet",
      "outputs": [],
      "payable": true,
      "stateMutability": "payable",
      "type": "function"
    },
    {
      "constant": false,
      "inputs": [
        {
          "name": "nonce",
          "type": "string"
        }
      ],
      "name": "reveal",
      "outputs": [],
      "payable": false,
      "stateMutability": "nonpayable",
      "type": "function"
    },
    {
      "constant": false,
      "inputs": [],
      "name": "cashIn",
      "outputs": [],
      "payable": false,
      "stateMutability": "nonpayable",
      "type": "function"
    },
    {
      "constant": true,
      "inputs": [
        {
          "name": "nonce",
          "type": "string"
        }
      ],
      "name": "getHash",
      "outputs": [
        {
          "name": "",
          "type": "bytes32"
        }
      ],
      "payable": false,
      "stateMutability": "pure",
      "type": "function"
    }
  ],
  "bytecode": "0x6080604052670de0b6b3a764000060095534801561001c57600080fd5b5033600760006101000a81548173ffffffffffffffffffffffffffffffffffffffff021916908373ffffffffffffffffffffffffffffffffffffffff1602179055506000600360006101000a81548173ffffffffffffffffffffffffffffffffffffffff021916908373ffffffffffffffffffffffffffffffffffffffff1602179055506000600460006101000a81548173ffffffffffffffffffffffffffffffffffffffff021916908373ffffffffffffffffffffffffffffffffffffffff16021790555060006006819055506000600a819055506000600b60006101000a81548160ff0219169083151502179055506000600b60016101000a81548160ff0219169083151502179055506000600b60026101000a81548160ff0219169083151502179055506000600b60036101000a81548160ff0219169083151502179055506000600b60046101000a81548160ff021916908315150217905550612735806101886000396000f3fe60806040526004361061004a5760003560e01c8063177413da1461004f5780631e5806151461007d5780634c261247146100945780634d3820eb1461015c5780635b6beeb914610173575b600080fd5b61007b6004803603602081101561006557600080fd5b810190808035906020019092919050505061024f565b005b34801561008957600080fd5b50610092610a55565b005b3480156100a057600080fd5b5061015a600480360360208110156100b757600080fd5b81019080803590602001906401000000008111156100d457600080fd5b8201836020820111156100e657600080fd5b8035906020019184600183028401116401000000008311171561010857600080fd5b91908080601f016020809104026020016040519081016040528093929190818152602001838380828437600081840152601f19601f820116905080830192505050505050509192919290505050611ebf565b005b34801561016857600080fd5b50610171611ffc565b005b34801561017f57600080fd5b506102396004803603602081101561019657600080fd5b81019080803590602001906401000000008111156101b357600080fd5b8201836020820111156101c557600080fd5b803590602001918460018302840111640100000000831117156101e757600080fd5b91908080601f016020809104026020016040519081016040528093929190818152602001838380828437600081840152601f19601f820116905080830192505050505050509192919290505050612505565b6040518082815260200191505060405180910390f35b600034116102c5576040517f08c379a00000000000000000000000000000000000000000000000000000000081526004018080602001828103825260198152602001807f6e6f2076616c75652073656e7420746f20636f6e74726163740000000000000081525060200191505060405180910390fd5b600073ffffffffffffffffffffffffffffffffffffffff16600360009054906101000a900473ffffffffffffffffffffffffffffffffffffffff1673ffffffffffffffffffffffffffffffffffffffff1614806103705750600073ffffffffffffffffffffffffffffffffffffffff16600460009054906101000a900473ffffffffffffffffffffffffffffffffffffffff1673ffffffffffffffffffffffffffffffffffffffff16145b806103c857503373ffffffffffffffffffffffffffffffffffffffff16600360009054906101000a900473ffffffffffffffffffffffffffffffffffffffff1673ffffffffffffffffffffffffffffffffffffffff16145b8061042057503373ffffffffffffffffffffffffffffffffffffffff16600460009054906101000a900473ffffffffffffffffffffffffffffffffffffffff1673ffffffffffffffffffffffffffffffffffffffff16145b610475576040517f08c379a00000000000000000000000000000000000000000000000000000000081526004018080602001828103825260268152602001806126e46026913960400191505060405180910390fd5b6002806000600460009054906101000a900473ffffffffffffffffffffffffffffffffffffffff1673ffffffffffffffffffffffffffffffffffffffff1673ffffffffffffffffffffffffffffffffffffffff1681526020019081526020016000205460026000600360009054906101000a900473ffffffffffffffffffffffffffffffffffffffff1673ffffffffffffffffffffffffffffffffffffffff1673ffffffffffffffffffffffffffffffffffffffff1681526020019081526020016000205401106105ae576040517f08c379a000000000000000000000000000000000000000000000000000000000815260040180806020018281038252600e8152602001807f67616d657320776f6e203e3d203200000000000000000000000000000000000081525060200191505060405180910390fd5b600073ffffffffffffffffffffffffffffffffffffffff16600360009054906101000a900473ffffffffffffffffffffffffffffffffffffffff1673ffffffffffffffffffffffffffffffffffffffff161480156106185750600b60009054906101000a900460ff165b156106ca5733600360006101000a81548173ffffffffffffffffffffffffffffffffffffffff021916908373ffffffffffffffffffffffffffffffffffffffff160217905550600060026000600360009054906101000a900473ffffffffffffffffffffffffffffffffffffffff1673ffffffffffffffffffffffffffffffffffffffff1673ffffffffffffffffffffffffffffffffffffffff1681526020019081526020016000208190555061083d565b600360009054906101000a900473ffffffffffffffffffffffffffffffffffffffff1673ffffffffffffffffffffffffffffffffffffffff163373ffffffffffffffffffffffffffffffffffffffff16141580156107765750600073ffffffffffffffffffffffffffffffffffffffff16600460009054906101000a900473ffffffffffffffffffffffffffffffffffffffff1673ffffffffffffffffffffffffffffffffffffffff16145b801561078e5750600b60009054906101000a900460ff165b1561083c5733600460006101000a81548173ffffffffffffffffffffffffffffffffffffffff021916908373ffffffffffffffffffffffffffffffffffffffff160217905550600060026000600460009054906101000a900473ffffffffffffffffffffffffffffffffffffffff1673ffffffffffffffffffffffffffffffffffffffff1673ffffffffffffffffffffffffffffffffffffffff168152602001908152602001600020819055505b5b60006002600a548161084b57fe5b061480156108a75750600360009054906101000a900473ffffffffffffffffffffffffffffffffffffffff1673ffffffffffffffffffffffffffffffffffffffff163373ffffffffffffffffffffffffffffffffffffffff1614155b156108b157600080fd5b60016002600a54816108bf57fe5b0614801561091b5750600460009054906101000a900473ffffffffffffffffffffffffffffffffffffffff1673ffffffffffffffffffffffffffffffffffffffff163373ffffffffffffffffffffffffffffffffffffffff1614155b1561092557600080fd5b600360009054906101000a900473ffffffffffffffffffffffffffffffffffffffff1673ffffffffffffffffffffffffffffffffffffffff163373ffffffffffffffffffffffffffffffffffffffff1614156109ac576000819080600181540180825580915050906001820390600052602060002001600090919290919091505550610a30565b600460009054906101000a900473ffffffffffffffffffffffffffffffffffffffff1673ffffffffffffffffffffffffffffffffffffffff163373ffffffffffffffffffffffffffffffffffffffff161415610a2f5760018190806001815401808255809150509060018203906000526020600020016000909192909190915055505b5b34600660008282540192505081905550600a6000815480929190600101919050555050565b600b60039054906101000a900460ff168015610a7d5750600b60049054906101000a900460ff165b610a8657600080fd5b6000600c6040516020018082805460018160011615610100020316600290048015610ae85780601f10610ac6576101008083540402835291820191610ae8565b820191906000526020600020905b815481529060010190602001808311610ad4575b5050807f31000000000000000000000000000000000000000000000000000000000000008152506001019150506040516020818303038152906040528051906020012090506000600c6040516020018082805460018160011615610100020316600290048015610b8f5780601f10610b6d576101008083540402835291820191610b8f565b820191906000526020600020905b815481529060010190602001808311610b7b575b5050807f32000000000000000000000000000000000000000000000000000000000000008152506001019150506040516020818303038152906040528051906020012090506000600c6040516020018082805460018160011615610100020316600290048015610c365780601f10610c14576101008083540402835291820191610c36565b820191906000526020600020905b815481529060010190602001808311610c22575b5050807f33000000000000000000000000000000000000000000000000000000000000008152506001019150506040516020818303038152906040528051906020012090506000600c6040516020018082805460018160011615610100020316600290048015610cdd5780601f10610cbb576101008083540402835291820191610cdd565b820191906000526020600020905b815481529060010190602001808311610cc9575b5050807f34000000000000000000000000000000000000000000000000000000000000008152506001019150506040516020818303038152906040528051906020012090506000600c6040516020018082805460018160011615610100020316600290048015610d845780601f10610d62576101008083540402835291820191610d84565b820191906000526020600020905b815481529060010190602001808311610d70575b5050807f35000000000000000000000000000000000000000000000000000000000000008152506001019150506040516020818303038152906040528051906020012090506000600d6040516020018082805460018160011615610100020316600290048015610e2b5780601f10610e09576101008083540402835291820191610e2b565b820191906000526020600020905b815481529060010190602001808311610e17575b5050807f31000000000000000000000000000000000000000000000000000000000000008152506001019150506040516020818303038152906040528051906020012090506000600d6040516020018082805460018160011615610100020316600290048015610ed25780601f10610eb0576101008083540402835291820191610ed2565b820191906000526020600020905b815481529060010190602001808311610ebe575b5050807f32000000000000000000000000000000000000000000000000000000000000008152506001019150506040516020818303038152906040528051906020012090506000600d6040516020018082805460018160011615610100020316600290048015610f795780601f10610f57576101008083540402835291820191610f79565b820191906000526020600020905b815481529060010190602001808311610f65575b5050807f33000000000000000000000000000000000000000000000000000000000000008152506001019150506040516020818303038152906040528051906020012090506000600d60405160200180828054600181600116156101000203166002900480156110205780601f10610ffe576101008083540402835291820191611020565b820191906000526020600020905b81548152906001019060200180831161100c575b5050807f34000000000000000000000000000000000000000000000000000000000000008152506001019150506040516020818303038152906040528051906020012090506000600d60405160200180828054600181600116156101000203166002900480156110c75780601f106110a55761010080835404028352918201916110c7565b820191906000526020600020905b8154815290600101906020018083116110b3575b5050807f350000000000000000000000000000000000000000000000000000000000000081525060010191505060405160208183030381529060405280519060200120905060008090505b600080549050811015611c4c57600080905060008090508c6000848154811061113757fe5b9060005260206000200154141561115157600191506111f1565b8b6000848154811061115f57fe5b9060005260206000200154141561117957600291506111f0565b8a6000848154811061118757fe5b906000526020600020015414156111a157600391506111ef565b89600084815481106111af57fe5b906000526020600020015414156111c957600491506111ee565b88600084815481106111d757fe5b906000526020600020015414156111ed57600591505b5b5b5b5b87600184815481106111ff57fe5b9060005260206000200154141561121957600190506112b9565b866001848154811061122757fe5b9060005260206000200154141561124157600290506112b8565b856001848154811061124f57fe5b9060005260206000200154141561126957600390506112b7565b846001848154811061127757fe5b9060005260206000200154141561129157600490506112b6565b836001848154811061129f57fe5b906000526020600020015414156112b557600590505b5b5b5b5b8082141561139057600160026000600760009054906101000a900473ffffffffffffffffffffffffffffffffffffffff1673ffffffffffffffffffffffffffffffffffffffff1673ffffffffffffffffffffffffffffffffffffffff168152602001908152602001600020540160026000600760009054906101000a900473ffffffffffffffffffffffffffffffffffffffff1673ffffffffffffffffffffffffffffffffffffffff1673ffffffffffffffffffffffffffffffffffffffff16815260200190815260200160002081905550611c3d565b600182141561154c5760038114806113a85750600481145b1561147c57600160026000600360009054906101000a900473ffffffffffffffffffffffffffffffffffffffff1673ffffffffffffffffffffffffffffffffffffffff1673ffffffffffffffffffffffffffffffffffffffff168152602001908152602001600020540160026000600360009054906101000a900473ffffffffffffffffffffffffffffffffffffffff1673ffffffffffffffffffffffffffffffffffffffff1673ffffffffffffffffffffffffffffffffffffffff16815260200190815260200160002081905550611547565b600160026000600460009054906101000a900473ffffffffffffffffffffffffffffffffffffffff1673ffffffffffffffffffffffffffffffffffffffff1673ffffffffffffffffffffffffffffffffffffffff168152602001908152602001600020540160026000600460009054906101000a900473ffffffffffffffffffffffffffffffffffffffff1673ffffffffffffffffffffffffffffffffffffffff1673ffffffffffffffffffffffffffffffffffffffff168152602001908152602001600020819055505b611c3c565b60028214156117085760018114806115645750600581145b1561163857600160026000600360009054906101000a900473ffffffffffffffffffffffffffffffffffffffff1673ffffffffffffffffffffffffffffffffffffffff1673ffffffffffffffffffffffffffffffffffffffff168152602001908152602001600020540160026000600360009054906101000a900473ffffffffffffffffffffffffffffffffffffffff1673ffffffffffffffffffffffffffffffffffffffff1673ffffffffffffffffffffffffffffffffffffffff16815260200190815260200160002081905550611703565b600160026000600460009054906101000a900473ffffffffffffffffffffffffffffffffffffffff1673ffffffffffffffffffffffffffffffffffffffff1673ffffffffffffffffffffffffffffffffffffffff168152602001908152602001600020540160026000600460009054906101000a900473ffffffffffffffffffffffffffffffffffffffff1673ffffffffffffffffffffffffffffffffffffffff1673ffffffffffffffffffffffffffffffffffffffff168152602001908152602001600020819055505b611c3b565b60038214156118c45760028114806117205750600481145b156117f457600160026000600360009054906101000a900473ffffffffffffffffffffffffffffffffffffffff1673ffffffffffffffffffffffffffffffffffffffff1673ffffffffffffffffffffffffffffffffffffffff168152602001908152602001600020540160026000600360009054906101000a900473ffffffffffffffffffffffffffffffffffffffff1673ffffffffffffffffffffffffffffffffffffffff1673ffffffffffffffffffffffffffffffffffffffff168152602001908152602001600020819055506118bf565b600160026000600460009054906101000a900473ffffffffffffffffffffffffffffffffffffffff1673ffffffffffffffffffffffffffffffffffffffff1673ffffffffffffffffffffffffffffffffffffffff168152602001908152602001600020540160026000600460009054906101000a900473ffffffffffffffffffffffffffffffffffffffff1673ffffffffffffffffffffffffffffffffffffffff1673ffffffffffffffffffffffffffffffffffffffff168152602001908152602001600020819055505b611c3a565b6004821415611a805760028114806118dc5750600581145b156119b057600160026000600360009054906101000a900473ffffffffffffffffffffffffffffffffffffffff1673ffffffffffffffffffffffffffffffffffffffff1673ffffffffffffffffffffffffffffffffffffffff168152602001908152602001600020540160026000600360009054906101000a900473ffffffffffffffffffffffffffffffffffffffff1673ffffffffffffffffffffffffffffffffffffffff1673ffffffffffffffffffffffffffffffffffffffff16815260200190815260200160002081905550611a7b565b600160026000600460009054906101000a900473ffffffffffffffffffffffffffffffffffffffff1673ffffffffffffffffffffffffffffffffffffffff1673ffffffffffffffffffffffffffffffffffffffff168152602001908152602001600020540160026000600460009054906101000a900473ffffffffffffffffffffffffffffffffffffffff1673ffffffffffffffffffffffffffffffffffffffff1673ffffffffffffffffffffffffffffffffffffffff168152602001908152602001600020819055505b611c39565b6005821415611c38576001811480611a985750600381145b15611b6c57600160026000600360009054906101000a900473ffffffffffffffffffffffffffffffffffffffff1673ffffffffffffffffffffffffffffffffffffffff1673ffffffffffffffffffffffffffffffffffffffff168152602001908152602001600020540160026000600360009054906101000a900473ffffffffffffffffffffffffffffffffffffffff1673ffffffffffffffffffffffffffffffffffffffff1673ffffffffffffffffffffffffffffffffffffffff16815260200190815260200160002081905550611c37565b600160026000600460009054906101000a900473ffffffffffffffffffffffffffffffffffffffff1673ffffffffffffffffffffffffffffffffffffffff1673ffffffffffffffffffffffffffffffffffffffff168152602001908152602001600020540160026000600460009054906101000a900473ffffffffffffffffffffffffffffffffffffffff1673ffffffffffffffffffffffffffffffffffffffff1673ffffffffffffffffffffffffffffffffffffffff168152602001908152602001600020819055505b5b5b5b5b5b5b50508080600101915050611112565b50600080905060026000600460009054906101000a900473ffffffffffffffffffffffffffffffffffffffff1673ffffffffffffffffffffffffffffffffffffffff1673ffffffffffffffffffffffffffffffffffffffff1681526020019081526020016000205460026000600360009054906101000a900473ffffffffffffffffffffffffffffffffffffffff1673ffffffffffffffffffffffffffffffffffffffff1673ffffffffffffffffffffffffffffffffffffffff168152602001908152602001600020541415611d4657600760009054906101000a900473ffffffffffffffffffffffffffffffffffffffff169050611e61565b60026000600460009054906101000a900473ffffffffffffffffffffffffffffffffffffffff1673ffffffffffffffffffffffffffffffffffffffff1673ffffffffffffffffffffffffffffffffffffffff1681526020019081526020016000205460026000600360009054906101000a900473ffffffffffffffffffffffffffffffffffffffff1673ffffffffffffffffffffffffffffffffffffffff1673ffffffffffffffffffffffffffffffffffffffff168152602001908152602001600020541115611e3a57600360009054906101000a900473ffffffffffffffffffffffffffffffffffffffff169050611e60565b600460009054906101000a900473ffffffffffffffffffffffffffffffffffffffff1690505b5b8073ffffffffffffffffffffffffffffffffffffffff166108fc6006549081150290604051600060405180830381858888f19350505050158015611ea9573d6000803e3d6000fd5b50611eb26125a8565b5050505050505050505050565b6002600080549050148015611ed957506002600180549050145b611ee257600080fd5b3373ffffffffffffffffffffffffffffffffffffffff16600360009054906101000a900473ffffffffffffffffffffffffffffffffffffffff1673ffffffffffffffffffffffffffffffffffffffff161415611f6f5780600c9080519060200190611f4e92919061263e565b506001600b60036101000a81548160ff021916908315150217905550611ff9565b3373ffffffffffffffffffffffffffffffffffffffff16600460009054906101000a900473ffffffffffffffffffffffffffffffffffffffff1673ffffffffffffffffffffffffffffffffffffffff161415611ff85780600d9080519060200190611fdb92919061263e565b506001600b60046101000a81548160ff0219169083151502179055505b5b50565b600073ffffffffffffffffffffffffffffffffffffffff16600360009054906101000a900473ffffffffffffffffffffffffffffffffffffffff1673ffffffffffffffffffffffffffffffffffffffff1614806120a75750600073ffffffffffffffffffffffffffffffffffffffff16600460009054906101000a900473ffffffffffffffffffffffffffffffffffffffff1673ffffffffffffffffffffffffffffffffffffffff16145b6120b057600080fd5b600073ffffffffffffffffffffffffffffffffffffffff16600360009054906101000a900473ffffffffffffffffffffffffffffffffffffffff1673ffffffffffffffffffffffffffffffffffffffff161415801561215c57503373ffffffffffffffffffffffffffffffffffffffff16600360009054906101000a900473ffffffffffffffffffffffffffffffffffffffff1673ffffffffffffffffffffffffffffffffffffffff16145b1561216657600080fd5b600073ffffffffffffffffffffffffffffffffffffffff16600460009054906101000a900473ffffffffffffffffffffffffffffffffffffffff1673ffffffffffffffffffffffffffffffffffffffff161415801561221257503373ffffffffffffffffffffffffffffffffffffffff16600460009054906101000a900473ffffffffffffffffffffffffffffffffffffffff1673ffffffffffffffffffffffffffffffffffffffff16145b1561221c57600080fd5b600073ffffffffffffffffffffffffffffffffffffffff16600360009054906101000a900473ffffffffffffffffffffffffffffffffffffffff1673ffffffffffffffffffffffffffffffffffffffff16141580156122ca5750600073ffffffffffffffffffffffffffffffffffffffff16600460009054906101000a900473ffffffffffffffffffffffffffffffffffffffff1673ffffffffffffffffffffffffffffffffffffffff1614155b156122d457600080fd5b6000809050600073ffffffffffffffffffffffffffffffffffffffff16600360009054906101000a900473ffffffffffffffffffffffffffffffffffffffff1673ffffffffffffffffffffffffffffffffffffffff1614156123dd5733600360006101000a81548173ffffffffffffffffffffffffffffffffffffffff021916908373ffffffffffffffffffffffffffffffffffffffff160217905550600060026000600360009054906101000a900473ffffffffffffffffffffffffffffffffffffffff1673ffffffffffffffffffffffffffffffffffffffff1673ffffffffffffffffffffffffffffffffffffffff16815260200190815260200160002081905550600190505b801580156124395750600073ffffffffffffffffffffffffffffffffffffffff16600460009054906101000a900473ffffffffffffffffffffffffffffffffffffffff1673ffffffffffffffffffffffffffffffffffffffff16145b156125025733600460006101000a81548173ffffffffffffffffffffffffffffffffffffffff021916908373ffffffffffffffffffffffffffffffffffffffff160217905550600060026000600460009054906101000a900473ffffffffffffffffffffffffffffffffffffffff1673ffffffffffffffffffffffffffffffffffffffff1673ffffffffffffffffffffffffffffffffffffffff168152602001908152602001600020819055506001600b60006101000a81548160ff0219169083151502179055505b50565b6000816040516020018082805190602001908083835b6020831061253e578051825260208201915060208101905060208303925061251b565b6001836020036101000a038019825116818451168082178552505050505050905001807f3100000000000000000000000000000000000000000000000000000000000000815250600101915050604051602081830303815290604052805190602001209050919050565b6000600360006101000a81548173ffffffffffffffffffffffffffffffffffffffff021916908373ffffffffffffffffffffffffffffffffffffffff1602179055506000600460006101000a81548173ffffffffffffffffffffffffffffffffffffffff021916908373ffffffffffffffffffffffffffffffffffffffff16021790555060006006819055506000600a81905550565b828054600181600116156101000203166002900490600052602060002090601f016020900481019282601f1061267f57805160ff19168380011785556126ad565b828001600101855582156126ad579182015b828111156126ac578251825591602001919060010190612691565b5b5090506126ba91906126be565b5090565b6126e091905b808211156126dc5760008160009055506001016126c4565b5090565b9056fe736f6d657468696e672077726f6e6720776974682074686520706c6179657220737461747573a165627a7a7230582020902ca8b576b501dbd824195d8ecad79116fdf470f7aa553d50dfcaf2cc3f320029",
  "source": "pragma solidity >=0.4.22 <0.6.0;\n\ncontract Rpsls\n{\n    //mapping (address => bytes32) private choice;\n    bytes32[] playerOneChoices;\n    bytes32[] playerTwoChoices;\n    mapping (address => uint) private games_won;\n    address payable private playerOne;\n    address payable private playerTwo;\n    uint256 private _betAmount;\n    uint256 private cashPrice;\n    address payable private owner;\n    address payable nextPlayer;\n    uint256 private myEtherValue = 1 ether;\n    uint private cntrl;\n    bool allPlayersRegistered;\n    bool playerOneReveal;\n    bool playerTwoReveal;\n    bool playerOneRevealed;\n    bool playerTwoRevealed;\n    string playerOneNonce;\n    string playerTwoNonce;\n    \n    constructor () public {\n        // _betAmount = betAmount * myEtherValue;\n        owner = msg.sender;\n        playerOne = address(0);\n        playerTwo = address(0);\n        cashPrice = 0;\n        cntrl = 0;\n        allPlayersRegistered = false;\n        playerOneReveal = false;\n        playerTwoReveal = false;\n        playerOneRevealed = false;\n        playerTwoRevealed = false;\n    }\n    function registerUser() public {\n        require(playerOne == address(0) || playerTwo == address(0));\n        if(playerOne != address(0) && playerOne == msg.sender)\n        {\n            revert();\n        }\n        if(playerTwo != address(0) && playerTwo == msg.sender)\n        {\n            revert();\n        }\n        if(playerOne != address(0) && playerTwo != address(0))\n        {\n            revert();\n        }\n        bool justRegisteredPlayerOne = false;\n        if(playerOne == address(0))\n        {\n            playerOne = msg.sender;\n            games_won[playerOne] = 0;\n            justRegisteredPlayerOne = true;\n        }\n        if(!justRegisteredPlayerOne && playerTwo == address(0))\n        {\n            playerTwo = msg.sender;\n            games_won[playerTwo] = 0;\n            allPlayersRegistered = true;\n        }\n    }\n    \n    \n    function bet(bytes32 choiceHash) payable public {\n        require(msg.value > 0,'no value sent to contract' );\n        require(playerOne == address(0) || playerTwo == address(0) || playerOne == msg.sender || playerTwo == msg.sender,'something wrong with the player status');\n        require(games_won[playerOne] + games_won[playerTwo] < 2,'games won >= 2');\n        if(playerOne == address(0) && allPlayersRegistered)\n        {\n            playerOne = msg.sender;\n            games_won[playerOne] = 0;\n        }\n        else if(msg.sender != playerOne && playerTwo == address(0) && allPlayersRegistered)\n        {\n            playerTwo = msg.sender;\n            games_won[playerTwo] = 0;\n        }\n        if(cntrl % 2 == 0 && msg.sender != playerOne)\n        {\n            revert();\n        }\n        if(cntrl % 2 == 1 && msg.sender != playerTwo)\n        {\n            revert();\n        }\n        //choice[msg.sender] = choiceHash;\n        if(msg.sender == playerOne)\n        {\n            playerOneChoices.push(choiceHash);\n        }\n        else if(msg.sender == playerTwo)\n        {\n            playerTwoChoices.push(choiceHash);\n        }\n        cashPrice += msg.value;\n        cntrl++;\n    }\n    \n    function reset() private {\n        playerOne = address(0);\n        playerTwo = address(0);\n        cashPrice = 0;\n        cntrl = 0;\n    }\n    \n    function reveal(string memory nonce) public {\n        require(playerOneChoices.length == 2 && playerTwoChoices.length == 2);\n        if(playerOne == msg.sender)\n        {\n            playerOneNonce = nonce;\n            playerOneRevealed = true;\n        }\n        else if(playerTwo == msg.sender)\n        {\n            playerTwoNonce = nonce;\n            playerTwoRevealed = true;\n        }\n    }\n    \n    \n    function cashIn() public {\n        //require(games_won[playerOne] + games_won[playerTwo] == 10);\n        require(playerOneRevealed && playerTwoRevealed);\n        \n        bytes32 playerOneChoiceOne = keccak256(abi.encodePacked(playerOneNonce,\"1\"));\n        bytes32 playerOneChoiceTwo = keccak256(abi.encodePacked(playerOneNonce,\"2\"));\n        bytes32 playerOneChoiceThree = keccak256(abi.encodePacked(playerOneNonce,\"3\"));\n        bytes32 playerOneChoiceFour = keccak256(abi.encodePacked(playerOneNonce,\"4\"));\n        bytes32 playerOneChoiceFive = keccak256(abi.encodePacked(playerOneNonce,\"5\"));\n        \n        bytes32 playerTwoChoiceOne = keccak256(abi.encodePacked(playerTwoNonce,\"1\"));\n        bytes32 playerTwoChoiceTwo = keccak256(abi.encodePacked(playerTwoNonce,\"2\"));\n        bytes32 playerTwoChoiceThree = keccak256(abi.encodePacked(playerTwoNonce,\"3\"));\n        bytes32 playerTwoChoiceFour = keccak256(abi.encodePacked(playerTwoNonce,\"4\"));\n        bytes32 playerTwoChoiceFive = keccak256(abi.encodePacked(playerTwoNonce,\"5\"));\n        \n        for(uint i=0; i < playerOneChoices.length; i++)\n        {\n            uint playerOneChoice = 0;\n            uint playerTwoChoice = 0;\n            \n            \n            if(playerOneChoices[i] == playerOneChoiceOne)\n            {\n                playerOneChoice = 1;\n            }\n            else if(playerOneChoices[i] == playerOneChoiceTwo)\n            {\n                playerOneChoice = 2;\n            }\n            else if(playerOneChoices[i] == playerOneChoiceThree)\n            {\n                playerOneChoice = 3;\n            }\n            else if(playerOneChoices[i] == playerOneChoiceFour)\n            {\n                playerOneChoice = 4;\n            }\n            else if(playerOneChoices[i] == playerOneChoiceFive)\n            {\n                playerOneChoice = 5;\n            }\n            \n            if(playerTwoChoices[i] == playerTwoChoiceOne)\n            {\n                playerTwoChoice = 1;\n            }\n            else if(playerTwoChoices[i] == playerTwoChoiceTwo)\n            {\n                playerTwoChoice = 2;\n            }\n            else if(playerTwoChoices[i] == playerTwoChoiceThree)\n            {\n                playerTwoChoice = 3;\n            }\n            else if(playerTwoChoices[i] == playerTwoChoiceFour)\n            {\n                playerTwoChoice = 4;\n            }\n            else if(playerTwoChoices[i] == playerTwoChoiceFive)\n            {\n                playerTwoChoice = 5;\n            }\n            \n            \n            if(playerOneChoice == playerTwoChoice)\n            {\n                games_won[owner] = games_won[owner] + 1;\n            }\n            else if(playerOneChoice == 1)\n            {\n                if(playerTwoChoice == 3 || playerTwoChoice == 4)\n                {\n                    games_won[playerOne] = games_won[playerOne] + 1;\n                }\n                else\n                {\n                    games_won[playerTwo] = games_won[playerTwo] + 1;\n                }\n            }\n            else if(playerOneChoice == 2)\n            {\n                if(playerTwoChoice == 1 || playerTwoChoice == 5)\n                {\n                    games_won[playerOne] = games_won[playerOne] + 1;\n                }\n                else\n                {\n                    games_won[playerTwo] = games_won[playerTwo] + 1;\n                }\n            }\n            else if(playerOneChoice == 3)\n            {\n                if(playerTwoChoice == 2 || playerTwoChoice == 4)\n                {\n                    games_won[playerOne] = games_won[playerOne] + 1;\n                }\n                else\n                {\n                    games_won[playerTwo] = games_won[playerTwo] + 1;\n                }\n            }\n            else if(playerOneChoice == 4)\n            {\n                if(playerTwoChoice == 2 || playerTwoChoice == 5)\n                {\n                    games_won[playerOne] = games_won[playerOne] + 1;\n                }\n                else\n                {\n                    games_won[playerTwo] = games_won[playerTwo] + 1;\n                }\n            }\n            else if(playerOneChoice == 5)\n            {\n                if(playerTwoChoice == 1 || playerTwoChoice == 3)\n                {\n                    games_won[playerOne] = games_won[playerOne] + 1;\n                }\n                else\n                {\n                    games_won[playerTwo] = games_won[playerTwo] + 1;\n                }\n            }\n        }\n        \n        \n        address payable winner = address(0);\n        if(games_won[playerOne] == games_won[playerTwo])\n        {\n            winner = owner;\n        }\n        else if(games_won[playerOne] > games_won[playerTwo])\n        {\n            winner = playerOne;\n        }\n        else\n        {\n            winner = playerTwo;\n        }\n        winner.transfer(cashPrice);\n        reset();\n    }\n    \n    function getHash(string memory nonce) public pure returns (bytes32) {\n        return keccak256(abi.encodePacked(nonce,\"1\"));\n    }\n    \n}",
  "sourcePath": "/home/tarun/Documents/Education/Sem_3/Assignments/Blockchain/backup/blockchain-assignment-1/contracts/temp.sol",
  "compiler": {
    "name": "solc",
    "version": "0.5.8+commit.23d335f2.Emscripten.clang"
  },
  "schemaVersion": "3.0.16",
  "updatedAt": "2019-09-17T12:18:33.136Z",
  "devdoc": {
    "methods": {}
  },
  "userdoc": {
    "methods": {}
  }
}