{
  "contractName": "Rpsls",
  "abi": [
    {
      "inputs": [
        {
          "name": "randomAgent",
          "type": "bool"
        }
      ],
      "payable": false,
      "stateMutability": "nonpayable",
      "type": "constructor"
    },
    {
      "constant": false,
      "inputs": [],
      "name": "registerUser",
      "outputs": [],
      "payable": false,
      "stateMutability": "nonpayable",
      "type": "function"
    },
    {
      "constant": false,
      "inputs": [
        {
          "name": "current_choice",
          "type": "uint256"
        }
      ],
      "name": "bet",
      "outputs": [],
      "payable": true,
      "stateMutability": "payable",
      "type": "function"
    },
    {
      "constant": false,
      "inputs": [
        {
          "name": "randomAgent",
          "type": "bool"
        }
      ],
      "name": "reset",
      "outputs": [],
      "payable": false,
      "stateMutability": "nonpayable",
      "type": "function"
    },
    {
      "constant": false,
      "inputs": [],
      "name": "cashIn",
      "outputs": [],
      "payable": false,
      "stateMutability": "nonpayable",
      "type": "function"
    },
    {
      "constant": false,
      "inputs": [],
      "name": "recharge",
      "outputs": [],
      "payable": true,
      "stateMutability": "payable",
      "type": "function"
    }
  ],
  "bytecode": "0x6080604052670de0b6b3a764000060085534801561001c57600080fd5b5060405160208061223f8339810180604052602081101561003c57600080fd5b810190808051906020019092919050505033600660006101000a81548173ffffffffffffffffffffffffffffffffffffffff021916908373ffffffffffffffffffffffffffffffffffffffff1602179055506000600b819055506000600260006101000a81548173ffffffffffffffffffffffffffffffffffffffff021916908373ffffffffffffffffffffffffffffffffffffffff1602179055506000600360006101000a81548173ffffffffffffffffffffffffffffffffffffffff021916908373ffffffffffffffffffffffffffffffffffffffff160217905550600060058190555060006009819055506000600a60006101000a81548160ff0219169083151502179055506000600a60016101000a81548160ff021916908315150217905550600a60019054906101000a900460ff16156101d957600660009054906101000a900473ffffffffffffffffffffffffffffffffffffffff16600360006101000a81548173ffffffffffffffffffffffffffffffffffffffff021916908373ffffffffffffffffffffffffffffffffffffffff1602179055505b50612056806101e96000396000f3fe60806040526004361061004a5760003560e01c8063059d910e1461004f5780631e5806151461008c5780634cddae28146100a35780634d3820eb146100ad5780637365870b146100c4575b600080fd5b34801561005b57600080fd5b5061008a6004803603602081101561007257600080fd5b810190808035151590602001909291905050506100f2565b005b34801561009857600080fd5b506100a16101be565b005b6100ab6104f9565b005b3480156100b957600080fd5b506100c2610518565b005b6100f0600480360360208110156100da57600080fd5b8101908080359060200190929190505050610b85565b005b6000600260006101000a81548173ffffffffffffffffffffffffffffffffffffffff021916908373ffffffffffffffffffffffffffffffffffffffff1602179055506000600360006101000a81548173ffffffffffffffffffffffffffffffffffffffff021916908373ffffffffffffffffffffffffffffffffffffffff1602179055506000600581905550600060098190555080600a60016101000a81548160ff0219169083151502179055506000600a60006101000a81548160ff02191690831515021790555050565b600a60016000600360009054906101000a900473ffffffffffffffffffffffffffffffffffffffff1673ffffffffffffffffffffffffffffffffffffffff1673ffffffffffffffffffffffffffffffffffffffff1681526020019081526020016000205460016000600260009054906101000a900473ffffffffffffffffffffffffffffffffffffffff1673ffffffffffffffffffffffffffffffffffffffff1673ffffffffffffffffffffffffffffffffffffffff16815260200190815260200160002054011461028f57600080fd5b600080905060016000600360009054906101000a900473ffffffffffffffffffffffffffffffffffffffff1673ffffffffffffffffffffffffffffffffffffffff1673ffffffffffffffffffffffffffffffffffffffff1681526020019081526020016000205460016000600260009054906101000a900473ffffffffffffffffffffffffffffffffffffffff1673ffffffffffffffffffffffffffffffffffffffff1673ffffffffffffffffffffffffffffffffffffffff16815260200190815260200160002054141561038857600660009054906101000a900473ffffffffffffffffffffffffffffffffffffffff1690506104a3565b60016000600360009054906101000a900473ffffffffffffffffffffffffffffffffffffffff1673ffffffffffffffffffffffffffffffffffffffff1673ffffffffffffffffffffffffffffffffffffffff1681526020019081526020016000205460016000600260009054906101000a900473ffffffffffffffffffffffffffffffffffffffff1673ffffffffffffffffffffffffffffffffffffffff1673ffffffffffffffffffffffffffffffffffffffff16815260200190815260200160002054111561047c57600260009054906101000a900473ffffffffffffffffffffffffffffffffffffffff1690506104a2565b600360009054906101000a900473ffffffffffffffffffffffffffffffffffffffff1690505b5b8073ffffffffffffffffffffffffffffffffffffffff166108fc6005549081150290604051600060405180830381858888f193505050501580156104eb573d6000803e3d6000fd5b506104f660006100f2565b50565b6000341161050657600080fd5b34600b60008282540192505081905550565b600073ffffffffffffffffffffffffffffffffffffffff16600260009054906101000a900473ffffffffffffffffffffffffffffffffffffffff1673ffffffffffffffffffffffffffffffffffffffff1614806105c35750600073ffffffffffffffffffffffffffffffffffffffff16600360009054906101000a900473ffffffffffffffffffffffffffffffffffffffff1673ffffffffffffffffffffffffffffffffffffffff16145b610635576040517f08c379a00000000000000000000000000000000000000000000000000000000081526004018080602001828103825260178152602001807f41646472657373657320617265206e6f6e207a65726f7300000000000000000081525060200191505060405180910390fd5b600073ffffffffffffffffffffffffffffffffffffffff16600260009054906101000a900473ffffffffffffffffffffffffffffffffffffffff1673ffffffffffffffffffffffffffffffffffffffff16141580156106e157503373ffffffffffffffffffffffffffffffffffffffff16600260009054906101000a900473ffffffffffffffffffffffffffffffffffffffff1673ffffffffffffffffffffffffffffffffffffffff16145b156106eb57600080fd5b600073ffffffffffffffffffffffffffffffffffffffff16600360009054906101000a900473ffffffffffffffffffffffffffffffffffffffff1673ffffffffffffffffffffffffffffffffffffffff161415801561079757503373ffffffffffffffffffffffffffffffffffffffff16600360009054906101000a900473ffffffffffffffffffffffffffffffffffffffff1673ffffffffffffffffffffffffffffffffffffffff16145b156107a157600080fd5b600073ffffffffffffffffffffffffffffffffffffffff16600260009054906101000a900473ffffffffffffffffffffffffffffffffffffffff1673ffffffffffffffffffffffffffffffffffffffff161415801561084f5750600073ffffffffffffffffffffffffffffffffffffffff16600360009054906101000a900473ffffffffffffffffffffffffffffffffffffffff1673ffffffffffffffffffffffffffffffffffffffff1614155b1561085957600080fd5b6000809050600073ffffffffffffffffffffffffffffffffffffffff16600260009054906101000a900473ffffffffffffffffffffffffffffffffffffffff1673ffffffffffffffffffffffffffffffffffffffff161415610a5d5733600260006101000a81548173ffffffffffffffffffffffffffffffffffffffff021916908373ffffffffffffffffffffffffffffffffffffffff160217905550600060016000600260009054906101000a900473ffffffffffffffffffffffffffffffffffffffff1673ffffffffffffffffffffffffffffffffffffffff1673ffffffffffffffffffffffffffffffffffffffff1681526020019081526020016000208190555060019050600a60019054906101000a900460ff1615610a5c57600660009054906101000a900473ffffffffffffffffffffffffffffffffffffffff16600360006101000a81548173ffffffffffffffffffffffffffffffffffffffff021916908373ffffffffffffffffffffffffffffffffffffffff160217905550600060016000600360009054906101000a900473ffffffffffffffffffffffffffffffffffffffff1673ffffffffffffffffffffffffffffffffffffffff1673ffffffffffffffffffffffffffffffffffffffff168152602001908152602001600020819055506001600a60006101000a81548160ff0219169083151502179055505b5b80158015610ab95750600073ffffffffffffffffffffffffffffffffffffffff16600360009054906101000a900473ffffffffffffffffffffffffffffffffffffffff1673ffffffffffffffffffffffffffffffffffffffff16145b15610b825733600360006101000a81548173ffffffffffffffffffffffffffffffffffffffff021916908373ffffffffffffffffffffffffffffffffffffffff160217905550600060016000600360009054906101000a900473ffffffffffffffffffffffffffffffffffffffff1673ffffffffffffffffffffffffffffffffffffffff1673ffffffffffffffffffffffffffffffffffffffff168152602001908152602001600020819055506001600a60006101000a81548160ff0219169083151502179055505b50565b600034118015610b955750600081115b8015610ba15750600681105b8015610d045750600073ffffffffffffffffffffffffffffffffffffffff16600260009054906101000a900473ffffffffffffffffffffffffffffffffffffffff1673ffffffffffffffffffffffffffffffffffffffff161480610c535750600073ffffffffffffffffffffffffffffffffffffffff16600360009054906101000a900473ffffffffffffffffffffffffffffffffffffffff1673ffffffffffffffffffffffffffffffffffffffff16145b80610cab57503373ffffffffffffffffffffffffffffffffffffffff16600260009054906101000a900473ffffffffffffffffffffffffffffffffffffffff1673ffffffffffffffffffffffffffffffffffffffff16145b80610d0357503373ffffffffffffffffffffffffffffffffffffffff16600360009054906101000a900473ffffffffffffffffffffffffffffffffffffffff1673ffffffffffffffffffffffffffffffffffffffff16145b5b8015610dd45750600a60016000600360009054906101000a900473ffffffffffffffffffffffffffffffffffffffff1673ffffffffffffffffffffffffffffffffffffffff1673ffffffffffffffffffffffffffffffffffffffff1681526020019081526020016000205460016000600260009054906101000a900473ffffffffffffffffffffffffffffffffffffffff1673ffffffffffffffffffffffffffffffffffffffff1673ffffffffffffffffffffffffffffffffffffffff1681526020019081526020016000205401105b610ddd57600080fd5b6000600260095481610deb57fe5b06148015610e475750600260009054906101000a900473ffffffffffffffffffffffffffffffffffffffff1673ffffffffffffffffffffffffffffffffffffffff163373ffffffffffffffffffffffffffffffffffffffff1614155b15610e5157600080fd5b6001600260095481610e5f57fe5b06148015610ebb5750600360009054906101000a900473ffffffffffffffffffffffffffffffffffffffff1673ffffffffffffffffffffffffffffffffffffffff163373ffffffffffffffffffffffffffffffffffffffff1614155b15610ec557600080fd5b806000803373ffffffffffffffffffffffffffffffffffffffff1673ffffffffffffffffffffffffffffffffffffffff1681526020019081526020016000208190555034600560008282540192505081905550600a60019054906101000a900460ff1615610fdd57610f35611fe1565b600080600360009054906101000a900473ffffffffffffffffffffffffffffffffffffffff1673ffffffffffffffffffffffffffffffffffffffff1673ffffffffffffffffffffffffffffffffffffffff1681526020019081526020016000208190555034600b5410610fb75734600560008282540192505081905550610fca565b600b546005600082825401925050819055505b6009600081548092919060010191905055505b6001600260095481610feb57fe5b061415611fcc57600080600360009054906101000a900473ffffffffffffffffffffffffffffffffffffffff1673ffffffffffffffffffffffffffffffffffffffff1673ffffffffffffffffffffffffffffffffffffffff16815260200190815260200160002054600080600260009054906101000a900473ffffffffffffffffffffffffffffffffffffffff1673ffffffffffffffffffffffffffffffffffffffff1673ffffffffffffffffffffffffffffffffffffffff168152602001908152602001600020541415611188576001806000600660009054906101000a900473ffffffffffffffffffffffffffffffffffffffff1673ffffffffffffffffffffffffffffffffffffffff1673ffffffffffffffffffffffffffffffffffffffff168152602001908152602001600020540160016000600660009054906101000a900473ffffffffffffffffffffffffffffffffffffffff1673ffffffffffffffffffffffffffffffffffffffff1673ffffffffffffffffffffffffffffffffffffffff16815260200190815260200160002081905550611fcb565b6001600080600260009054906101000a900473ffffffffffffffffffffffffffffffffffffffff1673ffffffffffffffffffffffffffffffffffffffff1673ffffffffffffffffffffffffffffffffffffffff168152602001908152602001600020541415611462576003600080600360009054906101000a900473ffffffffffffffffffffffffffffffffffffffff1673ffffffffffffffffffffffffffffffffffffffff1673ffffffffffffffffffffffffffffffffffffffff1681526020019081526020016000205414806112c057506004600080600360009054906101000a900473ffffffffffffffffffffffffffffffffffffffff1673ffffffffffffffffffffffffffffffffffffffff1673ffffffffffffffffffffffffffffffffffffffff16815260200190815260200160002054145b15611393576001806000600260009054906101000a900473ffffffffffffffffffffffffffffffffffffffff1673ffffffffffffffffffffffffffffffffffffffff1673ffffffffffffffffffffffffffffffffffffffff168152602001908152602001600020540160016000600260009054906101000a900473ffffffffffffffffffffffffffffffffffffffff1673ffffffffffffffffffffffffffffffffffffffff1673ffffffffffffffffffffffffffffffffffffffff1681526020019081526020016000208190555061145d565b6001806000600360009054906101000a900473ffffffffffffffffffffffffffffffffffffffff1673ffffffffffffffffffffffffffffffffffffffff1673ffffffffffffffffffffffffffffffffffffffff168152602001908152602001600020540160016000600360009054906101000a900473ffffffffffffffffffffffffffffffffffffffff1673ffffffffffffffffffffffffffffffffffffffff1673ffffffffffffffffffffffffffffffffffffffff168152602001908152602001600020819055505b611fca565b6002600080600260009054906101000a900473ffffffffffffffffffffffffffffffffffffffff1673ffffffffffffffffffffffffffffffffffffffff1673ffffffffffffffffffffffffffffffffffffffff16815260200190815260200160002054141561173c576001600080600360009054906101000a900473ffffffffffffffffffffffffffffffffffffffff1673ffffffffffffffffffffffffffffffffffffffff1673ffffffffffffffffffffffffffffffffffffffff16815260200190815260200160002054148061159a57506005600080600360009054906101000a900473ffffffffffffffffffffffffffffffffffffffff1673ffffffffffffffffffffffffffffffffffffffff1673ffffffffffffffffffffffffffffffffffffffff16815260200190815260200160002054145b1561166d576001806000600260009054906101000a900473ffffffffffffffffffffffffffffffffffffffff1673ffffffffffffffffffffffffffffffffffffffff1673ffffffffffffffffffffffffffffffffffffffff168152602001908152602001600020540160016000600260009054906101000a900473ffffffffffffffffffffffffffffffffffffffff1673ffffffffffffffffffffffffffffffffffffffff1673ffffffffffffffffffffffffffffffffffffffff16815260200190815260200160002081905550611737565b6001806000600360009054906101000a900473ffffffffffffffffffffffffffffffffffffffff1673ffffffffffffffffffffffffffffffffffffffff1673ffffffffffffffffffffffffffffffffffffffff168152602001908152602001600020540160016000600360009054906101000a900473ffffffffffffffffffffffffffffffffffffffff1673ffffffffffffffffffffffffffffffffffffffff1673ffffffffffffffffffffffffffffffffffffffff168152602001908152602001600020819055505b611fc9565b6003600080600260009054906101000a900473ffffffffffffffffffffffffffffffffffffffff1673ffffffffffffffffffffffffffffffffffffffff1673ffffffffffffffffffffffffffffffffffffffff168152602001908152602001600020541415611a16576002600080600360009054906101000a900473ffffffffffffffffffffffffffffffffffffffff1673ffffffffffffffffffffffffffffffffffffffff1673ffffffffffffffffffffffffffffffffffffffff16815260200190815260200160002054148061187457506004600080600360009054906101000a900473ffffffffffffffffffffffffffffffffffffffff1673ffffffffffffffffffffffffffffffffffffffff1673ffffffffffffffffffffffffffffffffffffffff16815260200190815260200160002054145b15611947576001806000600260009054906101000a900473ffffffffffffffffffffffffffffffffffffffff1673ffffffffffffffffffffffffffffffffffffffff1673ffffffffffffffffffffffffffffffffffffffff168152602001908152602001600020540160016000600260009054906101000a900473ffffffffffffffffffffffffffffffffffffffff1673ffffffffffffffffffffffffffffffffffffffff1673ffffffffffffffffffffffffffffffffffffffff16815260200190815260200160002081905550611a11565b6001806000600360009054906101000a900473ffffffffffffffffffffffffffffffffffffffff1673ffffffffffffffffffffffffffffffffffffffff1673ffffffffffffffffffffffffffffffffffffffff168152602001908152602001600020540160016000600360009054906101000a900473ffffffffffffffffffffffffffffffffffffffff1673ffffffffffffffffffffffffffffffffffffffff1673ffffffffffffffffffffffffffffffffffffffff168152602001908152602001600020819055505b611fc8565b6004600080600260009054906101000a900473ffffffffffffffffffffffffffffffffffffffff1673ffffffffffffffffffffffffffffffffffffffff1673ffffffffffffffffffffffffffffffffffffffff168152602001908152602001600020541415611cf0576002600080600360009054906101000a900473ffffffffffffffffffffffffffffffffffffffff1673ffffffffffffffffffffffffffffffffffffffff1673ffffffffffffffffffffffffffffffffffffffff168152602001908152602001600020541480611b4e57506005600080600360009054906101000a900473ffffffffffffffffffffffffffffffffffffffff1673ffffffffffffffffffffffffffffffffffffffff1673ffffffffffffffffffffffffffffffffffffffff16815260200190815260200160002054145b15611c21576001806000600260009054906101000a900473ffffffffffffffffffffffffffffffffffffffff1673ffffffffffffffffffffffffffffffffffffffff1673ffffffffffffffffffffffffffffffffffffffff168152602001908152602001600020540160016000600260009054906101000a900473ffffffffffffffffffffffffffffffffffffffff1673ffffffffffffffffffffffffffffffffffffffff1673ffffffffffffffffffffffffffffffffffffffff16815260200190815260200160002081905550611ceb565b6001806000600360009054906101000a900473ffffffffffffffffffffffffffffffffffffffff1673ffffffffffffffffffffffffffffffffffffffff1673ffffffffffffffffffffffffffffffffffffffff168152602001908152602001600020540160016000600360009054906101000a900473ffffffffffffffffffffffffffffffffffffffff1673ffffffffffffffffffffffffffffffffffffffff1673ffffffffffffffffffffffffffffffffffffffff168152602001908152602001600020819055505b611fc7565b6005600080600260009054906101000a900473ffffffffffffffffffffffffffffffffffffffff1673ffffffffffffffffffffffffffffffffffffffff1673ffffffffffffffffffffffffffffffffffffffff168152602001908152602001600020541415611fc6576001600080600360009054906101000a900473ffffffffffffffffffffffffffffffffffffffff1673ffffffffffffffffffffffffffffffffffffffff1673ffffffffffffffffffffffffffffffffffffffff168152602001908152602001600020541480611e2857506003600080600360009054906101000a900473ffffffffffffffffffffffffffffffffffffffff1673ffffffffffffffffffffffffffffffffffffffff1673ffffffffffffffffffffffffffffffffffffffff16815260200190815260200160002054145b15611efb576001806000600260009054906101000a900473ffffffffffffffffffffffffffffffffffffffff1673ffffffffffffffffffffffffffffffffffffffff1673ffffffffffffffffffffffffffffffffffffffff168152602001908152602001600020540160016000600260009054906101000a900473ffffffffffffffffffffffffffffffffffffffff1673ffffffffffffffffffffffffffffffffffffffff1673ffffffffffffffffffffffffffffffffffffffff16815260200190815260200160002081905550611fc5565b6001806000600360009054906101000a900473ffffffffffffffffffffffffffffffffffffffff1673ffffffffffffffffffffffffffffffffffffffff1673ffffffffffffffffffffffffffffffffffffffff168152602001908152602001600020540160016000600360009054906101000a900473ffffffffffffffffffffffffffffffffffffffff1673ffffffffffffffffffffffffffffffffffffffff1673ffffffffffffffffffffffffffffffffffffffff168152602001908152602001600020819055505b5b5b5b5b5b5b5b60096000815480929190600101919050555050565b600060016006424460405160200180838152602001828152602001925050506040516020818303038152906040528051906020012060001c8161202057fe5b060160ff1690509056fea165627a7a7230582031e983f3e93a7a1b1acede9108f54fe388c0aaa5da18f00e620a57c194ab2b540029",
  "source": "pragma solidity >=0.4.22 <0.6.0;\r\n\r\ncontract Rpsls\r\n{\r\n    mapping (address => uint) private choice;\r\n    mapping (address => uint) private games_won;\r\n    address payable private playerOne;\r\n    address payable private playerTwo;\r\n    uint256 private _betAmount;\r\n    uint256 private cashPrice;\r\n    address payable private owner;\r\n    address payable nextPlayer;\r\n    uint256 private myEtherValue = 1 ether;\r\n    uint private cntrl;\r\n    bool allPlayersRegistered;\r\n    bool private _randomAgent;\r\n    uint256 private contract_amt;\r\n    \r\n    constructor (bool randomAgent) public {\r\n        // _betAmount = betAmount * myEtherValue;\r\n        // require(msg.value > 0);\r\n        owner = msg.sender;\r\n        contract_amt = 0; //msg.value;\r\n        playerOne = address(0);\r\n        playerTwo = address(0);\r\n        cashPrice = 0;\r\n        cntrl = 0;\r\n        allPlayersRegistered = false;\r\n        _randomAgent = false; ///randomAgent;\r\n        if(_randomAgent) {\r\n            playerTwo = owner;\r\n        }\r\n    }\r\n    function registerUser() public {\r\n        require(playerOne == address(0) || playerTwo == address(0), 'Addresses are non zeros');\r\n        if(playerOne != address(0) && playerOne == msg.sender)\r\n        {\r\n            revert();\r\n        }\r\n        if(playerTwo != address(0) && playerTwo == msg.sender)\r\n        {\r\n            revert();\r\n        }\r\n        if(playerOne != address(0) && playerTwo != address(0))\r\n        {\r\n            revert();\r\n        }\r\n        bool justRegisteredPlayerOne = false;\r\n        if(playerOne == address(0))\r\n        {\r\n            playerOne = msg.sender;\r\n            games_won[playerOne] = 0;\r\n            justRegisteredPlayerOne = true;\r\n            \r\n            if(_randomAgent)\r\n            {\r\n                playerTwo = owner;\r\n                games_won[playerTwo] = 0;\r\n                allPlayersRegistered = true;\r\n            }\r\n        }\r\n        if(!justRegisteredPlayerOne && playerTwo == address(0))\r\n        {\r\n            playerTwo = msg.sender;\r\n            games_won[playerTwo] = 0;\r\n            allPlayersRegistered = true;\r\n        }\r\n    }\r\n    \r\n    function random() private view returns(uint){\r\n        return uint8(uint256(keccak256(abi.encodePacked(block.timestamp, block.difficulty)))%6) + 1;\r\n    }\r\n    \r\n    function bet(uint current_choice) public payable {\r\n        require(msg.value > 0 && current_choice > 0 && current_choice < 6 && (playerOne == address(0) || playerTwo == address(0) || playerOne == msg.sender || playerTwo == msg.sender) && (games_won[playerOne] + games_won[playerTwo] < 10));\r\n        // if(playerOne == address(0) && allPlayersRegistered)\r\n        // {\r\n        //     playerOne = msg.sender;\r\n        //     games_won[playerOne] = 0;\r\n        // }\r\n        // else if(msg.sender != playerOne && playerTwo == address(0) && allPlayersRegistered)\r\n        // {\r\n        //     playerTwo = msg.sender;\r\n        //     games_won[playerTwo] = 0;\r\n        // }\r\n        if(cntrl % 2 == 0 && msg.sender != playerOne)\r\n        {\r\n            revert();\r\n        }\r\n        if(cntrl % 2 == 1 && msg.sender != playerTwo)\r\n        {\r\n            revert();\r\n        }\r\n        choice[msg.sender] = current_choice;    \r\n        cashPrice += msg.value;\r\n        \r\n        if(_randomAgent) {\r\n            choice[playerTwo] = random();\r\n            if(contract_amt >= msg.value) {\r\n                cashPrice += msg.value;\r\n            }\r\n            else {\r\n                cashPrice += contract_amt;\r\n            }\r\n            // cashPrice += msg.value;\r\n            // games_won[playerTwo] = 0;\r\n            cntrl++;\r\n        }\r\n        \r\n        if(cntrl % 2 == 1)\r\n        {\r\n            if(choice[playerOne] == choice[playerTwo])\r\n            {\r\n                games_won[owner] = games_won[owner] + 1;\r\n            }\r\n            else if(choice[playerOne] == 1)\r\n            {\r\n                if(choice[playerTwo] == 3 || choice[playerTwo] == 4)\r\n                {\r\n                    games_won[playerOne] = games_won[playerOne] + 1;\r\n                }\r\n                else\r\n                {\r\n                    games_won[playerTwo] = games_won[playerTwo] + 1;\r\n                }\r\n            }\r\n            else if(choice[playerOne] == 2)\r\n            {\r\n                if(choice[playerTwo] == 1 || choice[playerTwo] == 5)\r\n                {\r\n                    games_won[playerOne] = games_won[playerOne] + 1;\r\n                }\r\n                else\r\n                {\r\n                    games_won[playerTwo] = games_won[playerTwo] + 1;\r\n                }\r\n            }\r\n            else if(choice[playerOne] == 3)\r\n            {\r\n                if(choice[playerTwo] == 2 || choice[playerTwo] == 4)\r\n                {\r\n                    games_won[playerOne] = games_won[playerOne] + 1;\r\n                }\r\n                else\r\n                {\r\n                    games_won[playerTwo] = games_won[playerTwo] + 1;\r\n                }\r\n            }\r\n            else if(choice[playerOne] == 4)\r\n            {\r\n                if(choice[playerTwo] == 2 || choice[playerTwo] == 5)\r\n                {\r\n                    games_won[playerOne] = games_won[playerOne] + 1;\r\n                }\r\n                else\r\n                {\r\n                    games_won[playerTwo] = games_won[playerTwo] + 1;\r\n                }\r\n            }\r\n            else if(choice[playerOne] == 5)\r\n            {\r\n                if(choice[playerTwo] == 1 || choice[playerTwo] == 3)\r\n                {\r\n                    games_won[playerOne] = games_won[playerOne] + 1;\r\n                }\r\n                else\r\n                {\r\n                    games_won[playerTwo] = games_won[playerTwo] + 1;\r\n                }\r\n            }\r\n        }\r\n        cntrl++;\r\n    }\r\n    \r\n    function reset(bool randomAgent) public {\r\n        playerOne = address(0);\r\n        playerTwo = address(0);\r\n        cashPrice = 0;\r\n        cntrl = 0;\r\n        _randomAgent = randomAgent;\r\n        allPlayersRegistered = false;\r\n    }\r\n    \r\n    \r\n    function cashIn() public {\r\n        require(games_won[playerOne] + games_won[playerTwo] == 10);\r\n        address payable winner = address(0);\r\n        if(games_won[playerOne] == games_won[playerTwo])\r\n        {\r\n            winner = owner;\r\n        }\r\n        else if(games_won[playerOne] > games_won[playerTwo])\r\n        {\r\n            winner = playerOne;\r\n        }\r\n        else\r\n        {\r\n            winner = playerTwo;\r\n        }\r\n        winner.transfer(cashPrice);\r\n        reset(false);\r\n    }\r\n    \r\n    \r\n    function recharge() payable public {\r\n        require(msg.value > 0);\r\n        contract_amt += msg.value;\r\n    }\r\n    \r\n}",
  "sourcePath": "D:/BC-workspace/bc1/contracts/rpsls.sol",
  "compiler": {
    "name": "solc",
    "version": "0.5.8+commit.23d335f2.Emscripten.clang"
  },
  "schemaVersion": "3.0.16",
  "updatedAt": "2019-09-17T10:18:03.316Z",
  "devdoc": {
    "methods": {}
  },
  "userdoc": {
    "methods": {}
  }
}